{"abi":[{"type":"constructor","inputs":[{"name":"token_","type":"address","internalType":"address"},{"name":"merkleRoot_","type":"bytes32","internalType":"bytes32"},{"name":"endTime_","type":"uint256","internalType":"uint256"}],"stateMutability":"nonpayable"},{"type":"function","name":"END_TIME","inputs":[],"outputs":[{"name":"","type":"uint256","internalType":"uint256"}],"stateMutability":"view"},{"type":"function","name":"MERKLE_ROOT","inputs":[],"outputs":[{"name":"","type":"bytes32","internalType":"bytes32"}],"stateMutability":"view"},{"type":"function","name":"TOKEN","inputs":[],"outputs":[{"name":"","type":"address","internalType":"address"}],"stateMutability":"view"},{"type":"function","name":"claim","inputs":[{"name":"index","type":"uint256","internalType":"uint256"},{"name":"account","type":"address","internalType":"address"},{"name":"amount","type":"uint256","internalType":"uint256"},{"name":"merkleProof","type":"bytes32[]","internalType":"bytes32[]"}],"outputs":[],"stateMutability":"nonpayable"},{"type":"function","name":"isClaimed","inputs":[{"name":"index","type":"uint256","internalType":"uint256"}],"outputs":[{"name":"","type":"bool","internalType":"bool"}],"stateMutability":"view"},{"type":"function","name":"owner","inputs":[],"outputs":[{"name":"","type":"address","internalType":"address"}],"stateMutability":"view"},{"type":"function","name":"renounceOwnership","inputs":[],"outputs":[],"stateMutability":"nonpayable"},{"type":"function","name":"transferOwnership","inputs":[{"name":"newOwner","type":"address","internalType":"address"}],"outputs":[],"stateMutability":"nonpayable"},{"type":"function","name":"withdraw","inputs":[],"outputs":[],"stateMutability":"nonpayable"},{"type":"event","name":"Claimed","inputs":[{"name":"index","type":"uint256","indexed":true,"internalType":"uint256"},{"name":"account","type":"address","indexed":true,"internalType":"address"},{"name":"amount","type":"uint256","indexed":true,"internalType":"uint256"}],"anonymous":false},{"type":"event","name":"OwnershipTransferred","inputs":[{"name":"previousOwner","type":"address","indexed":true,"internalType":"address"},{"name":"newOwner","type":"address","indexed":true,"internalType":"address"}],"anonymous":false},{"type":"error","name":"AddressEmptyCode","inputs":[{"name":"target","type":"address","internalType":"address"}]},{"type":"error","name":"AddressInsufficientBalance","inputs":[{"name":"account","type":"address","internalType":"address"}]},{"type":"error","name":"AlreadyClaimed","inputs":[]},{"type":"error","name":"ClaimWindowFinished","inputs":[]},{"type":"error","name":"EndTimeInPast","inputs":[]},{"type":"error","name":"FailedInnerCall","inputs":[]},{"type":"error","name":"InvalidProof","inputs":[]},{"type":"error","name":"NoWithdrawDuringClaim","inputs":[]},{"type":"error","name":"OwnableInvalidOwner","inputs":[{"name":"owner","type":"address","internalType":"address"}]},{"type":"error","name":"OwnableUnauthorizedAccount","inputs":[{"name":"account","type":"address","internalType":"address"}]},{"type":"error","name":"SafeERC20FailedOperation","inputs":[{"name":"token","type":"address","internalType":"address"}]}],"bytecode":{"object":"0x60e060405234801561001057600080fd5b50604051610b83380380610b8383398101604081905261002f916100e8565b338061005557604051631e4fbdf760e01b81526000600482015260240160405180910390fd5b61005e81610098565b5042811161007f576040516372e54d4d60e01b815260040160405180910390fd5b60c0526001600160a01b0390911660805260a05261012b565b600080546001600160a01b038381166001600160a01b0319831681178455604051919092169283917f8be0079c531659141344cd1fd0a4f28419497f9722a3daafe3b4186f6b6457e09190a35050565b6000806000606084860312156100fd57600080fd5b83516001600160a01b038116811461011457600080fd5b602085015160409095015190969495509392505050565b60805160a05160c051610a016101826000396000818160b2015281816101a6015261035b01526000818160f4015261028c015260008181610123015281816102ea015281816103bd01526104320152610a016000f3fe608060405234801561001057600080fd5b50600436106100935760003560e01c8063715018a611610066578063715018a61461011657806382bfefc81461011e5780638da5cb5b1461015d5780639e34070f1461016e578063f2fde38b1461019157600080fd5b80632e7ba6ef1461009857806337ba682d146100ad5780633ccfd60b146100e757806351e75e8b146100ef575b600080fd5b6100ab6100a636600461081b565b6101a4565b005b6100d47f000000000000000000000000000000000000000000000000000000000000000081565b6040519081526020015b60405180910390f35b6100ab610351565b6100d47f000000000000000000000000000000000000000000000000000000000000000081565b6100ab61045b565b6101457f000000000000000000000000000000000000000000000000000000000000000081565b6040516001600160a01b0390911681526020016100de565b6000546001600160a01b0316610145565b61018161017c3660046108b2565b61046d565b60405190151581526020016100de565b6100ab61019f3660046108cb565b6104ae565b7f00000000000000000000000000000000000000000000000000000000000000004211156101e55760405163d365f61160e01b815260040160405180910390fd5b6101ee8561046d565b1561020c57604051630c8d9eab60e31b815260040160405180910390fd5b60408051602081018790526bffffffffffffffffffffffff19606087901b1691810191909152605481018490526000906074016040516020818303038152906040528051906020012090506102b78383808060200260200160405190810160405280939291908181526020018383602002808284376000920191909152507f000000000000000000000000000000000000000000000000000000000000000092508591506104f19050565b6102d4576040516309bde33960e01b815260040160405180910390fd5b6102dd86610509565b6103116001600160a01b037f0000000000000000000000000000000000000000000000000000000000000000168686610548565b83856001600160a01b0316877f4ec90e965519d92681267467f775ada5bd214aa92c0dc93d90a5e880ce9ed02660405160405180910390a4505050505050565b61035961059f565b7f000000000000000000000000000000000000000000000000000000000000000042101561039a57604051630ee56a2b60e41b815260040160405180910390fd5b6040516370a0823160e01b81523060048201526104599033906001600160a01b037f000000000000000000000000000000000000000000000000000000000000000016906370a0823190602401602060405180830381865afa158015610404573d6000803e3d6000fd5b505050506040513d601f19601f8201168201806040525081019061042891906108e6565b6001600160a01b037f0000000000000000000000000000000000000000000000000000000000000000169190610548565b565b61046361059f565b61045960006105cc565b60008061047c61010084610915565b9050600061048c61010085610929565b60009283526001602081905260409093205492901b9182169091149392505050565b6104b661059f565b6001600160a01b0381166104e557604051631e4fbdf760e01b8152600060048201526024015b60405180910390fd5b6104ee816105cc565b50565b6000826104fe858461061c565b1490505b9392505050565b600061051761010083610915565b9050600061052761010084610929565b600092835260016020819052604090932080549390911b9092179091555050565b604080516001600160a01b038416602482015260448082018490528251808303909101815260649091019091526020810180516001600160e01b031663a9059cbb60e01b17905261059a908490610669565b505050565b6000546001600160a01b031633146104595760405163118cdaa760e01b81523360048201526024016104dc565b600080546001600160a01b038381166001600160a01b0319831681178455604051919092169283917f8be0079c531659141344cd1fd0a4f28419497f9722a3daafe3b4186f6b6457e09190a35050565b600081815b84518110156106615761064d828683815181106106405761064061093d565b60200260200101516106cc565b91508061065981610953565b915050610621565b509392505050565b600061067e6001600160a01b038416836106f8565b905080516000141580156106a35750808060200190518101906106a1919061097a565b155b1561059a57604051635274afe760e01b81526001600160a01b03841660048201526024016104dc565b60008183106106e8576000828152602084905260409020610502565b5060009182526020526040902090565b60606105028383600084600080856001600160a01b0316848660405161071e919061099c565b60006040518083038185875af1925050503d806000811461075b576040519150601f19603f3d011682016040523d82523d6000602084013e610760565b606091505b509150915061077086838361077a565b9695505050505050565b60608261078f5761078a826107d6565b610502565b81511580156107a657506001600160a01b0384163b155b156107cf57604051639996b31560e01b81526001600160a01b03851660048201526024016104dc565b5080610502565b8051156107e65780518082602001fd5b604051630a12f52160e11b815260040160405180910390fd5b80356001600160a01b038116811461081657600080fd5b919050565b60008060008060006080868803121561083357600080fd5b85359450610843602087016107ff565b935060408601359250606086013567ffffffffffffffff8082111561086757600080fd5b818801915088601f83011261087b57600080fd5b81358181111561088a57600080fd5b8960208260051b850101111561089f57600080fd5b9699959850939650602001949392505050565b6000602082840312156108c457600080fd5b5035919050565b6000602082840312156108dd57600080fd5b610502826107ff565b6000602082840312156108f857600080fd5b5051919050565b634e487b7160e01b600052601260045260246000fd5b600082610924576109246108ff565b500490565b600082610938576109386108ff565b500690565b634e487b7160e01b600052603260045260246000fd5b60006001820161097357634e487b7160e01b600052601160045260246000fd5b5060010190565b60006020828403121561098c57600080fd5b8151801515811461050257600080fd5b6000825160005b818110156109bd57602081860181015185830152016109a3565b50600092019182525091905056fea26469706673582212201901fbd363a3f67a8c76fa04d6086cf5e1b3e68a982c2b6d504796ba3a1dea2064736f6c63430008140033","linkReferences":{}},"methodIdentifiers":{"END_TIME()":"37ba682d","MERKLE_ROOT()":"51e75e8b","TOKEN()":"82bfefc8","claim(uint256,address,uint256,bytes32[])":"2e7ba6ef","isClaimed(uint256)":"9e34070f","owner()":"8da5cb5b","renounceOwnership()":"715018a6","transferOwnership(address)":"f2fde38b","withdraw()":"3ccfd60b"},"id":59}