{"abi":[{"type":"constructor","inputs":[{"name":"mintingAllowedAfter_","type":"uint256","internalType":"uint256"}],"stateMutability":"nonpayable"},{"type":"function","name":"CLOCK_MODE","inputs":[],"outputs":[{"name":"","type":"string","internalType":"string"}],"stateMutability":"view"},{"type":"function","name":"DOMAIN_SEPARATOR","inputs":[],"outputs":[{"name":"","type":"bytes32","internalType":"bytes32"}],"stateMutability":"view"},{"type":"function","name":"MINIMUM_TIME_BETWEEN_MINTS","inputs":[],"outputs":[{"name":"","type":"uint32","internalType":"uint32"}],"stateMutability":"view"},{"type":"function","name":"MINT_CAP","inputs":[],"outputs":[{"name":"","type":"uint8","internalType":"uint8"}],"stateMutability":"view"},{"type":"function","name":"TOKEN_INITIAL_SUPPLY","inputs":[],"outputs":[{"name":"","type":"uint256","internalType":"uint256"}],"stateMutability":"view"},{"type":"function","name":"TOKEN_NAME","inputs":[],"outputs":[{"name":"","type":"string","internalType":"string"}],"stateMutability":"view"},{"type":"function","name":"TOKEN_SYMBOL","inputs":[],"outputs":[{"name":"","type":"string","internalType":"string"}],"stateMutability":"view"},{"type":"function","name":"allowance","inputs":[{"name":"owner","type":"address","internalType":"address"},{"name":"spender","type":"address","internalType":"address"}],"outputs":[{"name":"","type":"uint256","internalType":"uint256"}],"stateMutability":"view"},{"type":"function","name":"approve","inputs":[{"name":"spender","type":"address","internalType":"address"},{"name":"value","type":"uint256","internalType":"uint256"}],"outputs":[{"name":"","type":"bool","internalType":"bool"}],"stateMutability":"nonpayable"},{"type":"function","name":"balanceOf","inputs":[{"name":"account","type":"address","internalType":"address"}],"outputs":[{"name":"","type":"uint256","internalType":"uint256"}],"stateMutability":"view"},{"type":"function","name":"burn","inputs":[{"name":"value","type":"uint256","internalType":"uint256"}],"outputs":[],"stateMutability":"nonpayable"},{"type":"function","name":"burnFrom","inputs":[{"name":"account","type":"address","internalType":"address"},{"name":"value","type":"uint256","internalType":"uint256"}],"outputs":[],"stateMutability":"nonpayable"},{"type":"function","name":"checkpoints","inputs":[{"name":"account","type":"address","internalType":"address"},{"name":"pos","type":"uint32","internalType":"uint32"}],"outputs":[{"name":"","type":"tuple","internalType":"struct Checkpoints.Checkpoint208","components":[{"name":"_key","type":"uint48","internalType":"uint48"},{"name":"_value","type":"uint208","internalType":"uint208"}]}],"stateMutability":"view"},{"type":"function","name":"clock","inputs":[],"outputs":[{"name":"","type":"uint48","internalType":"uint48"}],"stateMutability":"view"},{"type":"function","name":"decimals","inputs":[],"outputs":[{"name":"","type":"uint8","internalType":"uint8"}],"stateMutability":"view"},{"type":"function","name":"delegate","inputs":[{"name":"delegatee","type":"address","internalType":"address"}],"outputs":[],"stateMutability":"nonpayable"},{"type":"function","name":"delegateBySig","inputs":[{"name":"delegatee","type":"address","internalType":"address"},{"name":"nonce","type":"uint256","internalType":"uint256"},{"name":"expiry","type":"uint256","internalType":"uint256"},{"name":"v","type":"uint8","internalType":"uint8"},{"name":"r","type":"bytes32","internalType":"bytes32"},{"name":"s","type":"bytes32","internalType":"bytes32"}],"outputs":[],"stateMutability":"nonpayable"},{"type":"function","name":"delegates","inputs":[{"name":"account","type":"address","internalType":"address"}],"outputs":[{"name":"","type":"address","internalType":"address"}],"stateMutability":"view"},{"type":"function","name":"eip712Domain","inputs":[],"outputs":[{"name":"fields","type":"bytes1","internalType":"bytes1"},{"name":"name","type":"string","internalType":"string"},{"name":"version","type":"string","internalType":"string"},{"name":"chainId","type":"uint256","internalType":"uint256"},{"name":"verifyingContract","type":"address","internalType":"address"},{"name":"salt","type":"bytes32","internalType":"bytes32"},{"name":"extensions","type":"uint256[]","internalType":"uint256[]"}],"stateMutability":"view"},{"type":"function","name":"getPastTotalSupply","inputs":[{"name":"timepoint","type":"uint256","internalType":"uint256"}],"outputs":[{"name":"","type":"uint256","internalType":"uint256"}],"stateMutability":"view"},{"type":"function","name":"getPastVotes","inputs":[{"name":"account","type":"address","internalType":"address"},{"name":"timepoint","type":"uint256","internalType":"uint256"}],"outputs":[{"name":"","type":"uint256","internalType":"uint256"}],"stateMutability":"view"},{"type":"function","name":"getVotes","inputs":[{"name":"account","type":"address","internalType":"address"}],"outputs":[{"name":"","type":"uint256","internalType":"uint256"}],"stateMutability":"view"},{"type":"function","name":"mint","inputs":[{"name":"to","type":"address","internalType":"address"},{"name":"amount","type":"uint96","internalType":"uint96"}],"outputs":[],"stateMutability":"nonpayable"},{"type":"function","name":"mintingAllowedAfter","inputs":[],"outputs":[{"name":"","type":"uint256","internalType":"uint256"}],"stateMutability":"view"},{"type":"function","name":"name","inputs":[],"outputs":[{"name":"","type":"string","internalType":"string"}],"stateMutability":"view"},{"type":"function","name":"nonces","inputs":[{"name":"owner","type":"address","internalType":"address"}],"outputs":[{"name":"","type":"uint256","internalType":"uint256"}],"stateMutability":"view"},{"type":"function","name":"numCheckpoints","inputs":[{"name":"account","type":"address","internalType":"address"}],"outputs":[{"name":"","type":"uint32","internalType":"uint32"}],"stateMutability":"view"},{"type":"function","name":"owner","inputs":[],"outputs":[{"name":"","type":"address","internalType":"address"}],"stateMutability":"view"},{"type":"function","name":"pause","inputs":[],"outputs":[],"stateMutability":"nonpayable"},{"type":"function","name":"paused","inputs":[],"outputs":[{"name":"","type":"bool","internalType":"bool"}],"stateMutability":"view"},{"type":"function","name":"permit","inputs":[{"name":"owner","type":"address","internalType":"address"},{"name":"spender","type":"address","internalType":"address"},{"name":"value","type":"uint256","internalType":"uint256"},{"name":"deadline","type":"uint256","internalType":"uint256"},{"name":"v","type":"uint8","internalType":"uint8"},{"name":"r","type":"bytes32","internalType":"bytes32"},{"name":"s","type":"bytes32","internalType":"bytes32"}],"outputs":[],"stateMutability":"nonpayable"},{"type":"function","name":"renounceOwnership","inputs":[],"outputs":[],"stateMutability":"nonpayable"},{"type":"function","name":"symbol","inputs":[],"outputs":[{"name":"","type":"string","internalType":"string"}],"stateMutability":"view"},{"type":"function","name":"totalSupply","inputs":[],"outputs":[{"name":"","type":"uint256","internalType":"uint256"}],"stateMutability":"view"},{"type":"function","name":"transfer","inputs":[{"name":"to","type":"address","internalType":"address"},{"name":"value","type":"uint256","internalType":"uint256"}],"outputs":[{"name":"","type":"bool","internalType":"bool"}],"stateMutability":"nonpayable"},{"type":"function","name":"transferFrom","inputs":[{"name":"from","type":"address","internalType":"address"},{"name":"to","type":"address","internalType":"address"},{"name":"value","type":"uint256","internalType":"uint256"}],"outputs":[{"name":"","type":"bool","internalType":"bool"}],"stateMutability":"nonpayable"},{"type":"function","name":"transferOwnership","inputs":[{"name":"newOwner","type":"address","internalType":"address"}],"outputs":[],"stateMutability":"nonpayable"},{"type":"function","name":"unpause","inputs":[],"outputs":[],"stateMutability":"nonpayable"},{"type":"event","name":"Approval","inputs":[{"name":"owner","type":"address","indexed":true,"internalType":"address"},{"name":"spender","type":"address","indexed":true,"internalType":"address"},{"name":"value","type":"uint256","indexed":false,"internalType":"uint256"}],"anonymous":false},{"type":"event","name":"DelegateChanged","inputs":[{"name":"delegator","type":"address","indexed":true,"internalType":"address"},{"name":"fromDelegate","type":"address","indexed":true,"internalType":"address"},{"name":"toDelegate","type":"address","indexed":true,"internalType":"address"}],"anonymous":false},{"type":"event","name":"DelegateVotesChanged","inputs":[{"name":"delegate","type":"address","indexed":true,"internalType":"address"},{"name":"previousVotes","type":"uint256","indexed":false,"internalType":"uint256"},{"name":"newVotes","type":"uint256","indexed":false,"internalType":"uint256"}],"anonymous":false},{"type":"event","name":"EIP712DomainChanged","inputs":[],"anonymous":false},{"type":"event","name":"OwnershipTransferred","inputs":[{"name":"previousOwner","type":"address","indexed":true,"internalType":"address"},{"name":"newOwner","type":"address","indexed":true,"internalType":"address"}],"anonymous":false},{"type":"event","name":"Paused","inputs":[{"name":"account","type":"address","indexed":false,"internalType":"address"}],"anonymous":false},{"type":"event","name":"Transfer","inputs":[{"name":"from","type":"address","indexed":true,"internalType":"address"},{"name":"to","type":"address","indexed":true,"internalType":"address"},{"name":"value","type":"uint256","indexed":false,"internalType":"uint256"}],"anonymous":false},{"type":"event","name":"Unpaused","inputs":[{"name":"account","type":"address","indexed":false,"internalType":"address"}],"anonymous":false},{"type":"error","name":"CheckpointUnorderedInsertion","inputs":[]},{"type":"error","name":"ECDSAInvalidSignature","inputs":[]},{"type":"error","name":"ECDSAInvalidSignatureLength","inputs":[{"name":"length","type":"uint256","internalType":"uint256"}]},{"type":"error","name":"ECDSAInvalidSignatureS","inputs":[{"name":"s","type":"bytes32","internalType":"bytes32"}]},{"type":"error","name":"ERC20ExceededSafeSupply","inputs":[{"name":"increasedSupply","type":"uint256","internalType":"uint256"},{"name":"cap","type":"uint256","internalType":"uint256"}]},{"type":"error","name":"ERC20InsufficientAllowance","inputs":[{"name":"spender","type":"address","internalType":"address"},{"name":"allowance","type":"uint256","internalType":"uint256"},{"name":"needed","type":"uint256","internalType":"uint256"}]},{"type":"error","name":"ERC20InsufficientBalance","inputs":[{"name":"sender","type":"address","internalType":"address"},{"name":"balance","type":"uint256","internalType":"uint256"},{"name":"needed","type":"uint256","internalType":"uint256"}]},{"type":"error","name":"ERC20InvalidApprover","inputs":[{"name":"approver","type":"address","internalType":"address"}]},{"type":"error","name":"ERC20InvalidReceiver","inputs":[{"name":"receiver","type":"address","internalType":"address"}]},{"type":"error","name":"ERC20InvalidSender","inputs":[{"name":"sender","type":"address","internalType":"address"}]},{"type":"error","name":"ERC20InvalidSpender","inputs":[{"name":"spender","type":"address","internalType":"address"}]},{"type":"error","name":"ERC2612ExpiredSignature","inputs":[{"name":"deadline","type":"uint256","internalType":"uint256"}]},{"type":"error","name":"ERC2612InvalidSigner","inputs":[{"name":"signer","type":"address","internalType":"address"},{"name":"owner","type":"address","internalType":"address"}]},{"type":"error","name":"ERC5805FutureLookup","inputs":[{"name":"timepoint","type":"uint256","internalType":"uint256"},{"name":"clock","type":"uint48","internalType":"uint48"}]},{"type":"error","name":"ERC6372InconsistentClock","inputs":[]},{"type":"error","name":"EnforcedPause","inputs":[]},{"type":"error","name":"ExpectedPause","inputs":[]},{"type":"error","name":"InvalidAccountNonce","inputs":[{"name":"account","type":"address","internalType":"address"},{"name":"currentNonce","type":"uint256","internalType":"uint256"}]},{"type":"error","name":"InvalidShortString","inputs":[]},{"type":"error","name":"MintAllowedAfterDeployOnly","inputs":[{"name":"blockTimestamp","type":"uint256","internalType":"uint256"},{"name":"mintingAllowedAfter","type":"uint256","internalType":"uint256"}]},{"type":"error","name":"MintCapExceeded","inputs":[]},{"type":"error","name":"MintToZeroAddressBlocked","inputs":[]},{"type":"error","name":"MintingDateNotReached","inputs":[]},{"type":"error","name":"OwnableInvalidOwner","inputs":[{"name":"owner","type":"address","internalType":"address"}]},{"type":"error","name":"OwnableUnauthorizedAccount","inputs":[{"name":"account","type":"address","internalType":"address"}]},{"type":"error","name":"SafeCastOverflowedUintDowncast","inputs":[{"name":"bits","type":"uint8","internalType":"uint8"},{"name":"value","type":"uint256","internalType":"uint256"}]},{"type":"error","name":"StringTooLong","inputs":[{"name":"str","type":"string","internalType":"string"}]},{"type":"error","name":"VotesExpiredSignature","inputs":[{"name":"expiry","type":"uint256","internalType":"uint256"}]}],"bytecode":{"object":"0x6101606040523480156200001257600080fd5b50604051620031b6380380620031b6833981016040819052620000359162000a09565b33604051806040016040528060078152602001662330b93a3432b960c91b81525080604051806040016040528060018152602001603160f81b815250604051806040016040528060078152602001662330b93a3432b960c91b815250604051806040016040528060078152602001662320a92a2422a960c91b8152508160039081620000c2919062000ac7565b506004620000d1828262000ac7565b50506005805460ff1916905550620000eb8260066200022e565b61012052620000fc8160076200022e565b61014052815160208084019190912060e052815190820120610100524660a0526200018a60e05161010051604080517f8b73c3c69bb8fe3d512ecc4cf759cc79239f7b179b0ffacaa9a75d522b39400f60208201529081019290925260608201524660808201523060a082015260009060c00160405160208183030381529060405280519060200120905090565b60805250503060c052506001600160a01b038116620001c457604051631e4fbdf760e01b8152600060048201526024015b60405180910390fd5b620001cf8162000267565b5042811015620001fc57604051630a4fa5a960e41b815242600482015260248101829052604401620001bb565b62000225336200020f6012600a62000ca6565b6200021f90633b9aca0062000cb7565b620002b9565b600d5562000dbf565b60006020835110156200024e576200024683620002f7565b905062000261565b816200025b848262000ac7565b5060ff90505b92915050565b600c80546001600160a01b038381166001600160a01b0319831681179093556040519116919082907f8be0079c531659141344cd1fd0a4f28419497f9722a3daafe3b4186f6b6457e090600090a35050565b6001600160a01b038216620002e55760405163ec442f0560e01b815260006004820152602401620001bb565b620002f3600083836200033a565b5050565b600080829050601f8151111562000325578260405163305a27a960e01b8152600401620001bb919062000cd1565b8051620003328262000d21565b179392505050565b620003478383836200034c565b505050565b62000359838383620003bb565b6001600160a01b038316620003ae5760006200037460025490565b90506001600160d01b0380821115620003ab57604051630e58ae9360e11b81526004810183905260248101829052604401620001bb565b50505b62000347838383620003d2565b620003c56200046a565b6200034783838362000491565b6001600160a01b038316620004075762000404600b62000c14620005c460201b17620003fe84620005d9565b62000613565b50505b6001600160a01b038216620004365762000433600b62000c206200065060201b17620003fe84620005d9565b50505b6001600160a01b0383811660009081526009602052604080822054858416835291205462000347929182169116836200065e565b60055460ff16156200048f5760405163d93c066560e01b815260040160405180910390fd5b565b6001600160a01b038316620004c0578060026000828254620004b4919062000d46565b90915550620005349050565b6001600160a01b03831660009081526020819052604090205481811015620005155760405163391434e360e21b81526001600160a01b03851660048201526024810182905260448101839052606401620001bb565b6001600160a01b03841660009081526020819052604090209082900390555b6001600160a01b038216620005525760028054829003905562000571565b6001600160a01b03821660009081526020819052604090208054820190555b816001600160a01b0316836001600160a01b03167fddf252ad1be2c89b69c2b068fc378daa952ba7f163c4a11628f55a4df523b3ef83604051620005b791815260200190565b60405180910390a3505050565b6000620005d2828462000d5c565b9392505050565b60006001600160d01b038211156200060f576040516306dfcc6560e41b815260d0600482015260248101839052604401620001bb565b5090565b6000806200064362000624620007c5565b6200063a6200063388620007d6565b868860201c565b87919062000825565b915091505b935093915050565b6000620005d2828462000d86565b816001600160a01b0316836001600160a01b031614158015620006815750600081115b1562000347576001600160a01b0383161562000724576001600160a01b0383166000908152600a6020908152604082208291620006cf919062000650901b62000c2017620003fe86620005d9565b6001600160d01b031691506001600160d01b03169150846001600160a01b031660008051602062003196833981519152838360405162000719929190918252602082015260400190565b60405180910390a250505b6001600160a01b0382161562000347576001600160a01b0382166000908152600a60209081526040822082916200076c9190620005c4901b62000c1417620003fe86620005d9565b6001600160d01b031691506001600160d01b03169150836001600160a01b0316600080516020620031968339815191528383604051620007b6929190918252602082015260400190565b60405180910390a25050505050565b6000620007d162000835565b905090565b805460009080156200081c576200080283620007f460018462000da9565b600091825260209091200190565b54660100000000000090046001600160d01b0316620005d2565b60009392505050565b6000806200064385858562000842565b6000620007d143620009d4565b825460009081908015620009755760006200086487620007f460018562000da9565b60408051808201909152905465ffffffffffff80821680845266010000000000009092046001600160d01b031660208401529192509087161015620008bc57604051632520601d60e01b815260040160405180910390fd5b805165ffffffffffff808816911603620009105784620008e388620007f460018662000da9565b80546001600160d01b039290921666010000000000000265ffffffffffff90921691909117905562000964565b6040805180820190915265ffffffffffff80881682526001600160d01b0380881660208085019182528b54600181018d5560008d815291909120945191519092166601000000000000029216919091179101555b602001519250839150620006489050565b50506040805180820190915265ffffffffffff80851682526001600160d01b0380851660208085019182528854600181018a5560008a815291822095519251909316660100000000000002919093161792019190915590508162000648565b600065ffffffffffff8211156200060f576040516306dfcc6560e41b81526030600482015260248101839052604401620001bb565b60006020828403121562000a1c57600080fd5b5051919050565b634e487b7160e01b600052604160045260246000fd5b600181811c9082168062000a4e57607f821691505b60208210810362000a6f57634e487b7160e01b600052602260045260246000fd5b50919050565b601f8211156200034757600081815260208120601f850160051c8101602086101562000a9e5750805b601f850160051c820191505b8181101562000abf5782815560010162000aaa565b505050505050565b81516001600160401b0381111562000ae35762000ae362000a23565b62000afb8162000af4845462000a39565b8462000a75565b602080601f83116001811462000b33576000841562000b1a5750858301515b600019600386901b1c1916600185901b17855562000abf565b600085815260208120601f198616915b8281101562000b645788860151825594840194600190910190840162000b43565b508582101562000b835787850151600019600388901b60f8161c191681555b5050505050600190811b01905550565b634e487b7160e01b600052601160045260246000fd5b600181815b8085111562000bea57816000190482111562000bce5762000bce62000b93565b8085161562000bdc57918102915b93841c939080029062000bae565b509250929050565b60008262000c035750600162000261565b8162000c125750600062000261565b816001811462000c2b576002811462000c365762000c56565b600191505062000261565b60ff84111562000c4a5762000c4a62000b93565b50506001821b62000261565b5060208310610133831016604e8410600b841016171562000c7b575081810a62000261565b62000c87838362000ba9565b806000190482111562000c9e5762000c9e62000b93565b029392505050565b6000620005d260ff84168362000bf2565b808202811582820484141762000261576200026162000b93565b600060208083528351808285015260005b8181101562000d005785810183015185820160400152820162000ce2565b506000604082860101526040601f19601f8301168501019250505092915050565b8051602080830151919081101562000a6f5760001960209190910360031b1b16919050565b8082018082111562000261576200026162000b93565b6001600160d01b0381811683821601908082111562000d7f5762000d7f62000b93565b5092915050565b6001600160d01b0382811682821603908082111562000d7f5762000d7f62000b93565b8181038181111562000261576200026162000b93565b60805160a05160c05160e05161010051610120516101405161237c62000e1a600039600061119e0152600061117101526000610e5801526000610e3001526000610d8b01526000610db501526000610ddf015261237c6000f3fe608060405234801561001057600080fd5b50600436106102325760003560e01c80636fcfff451161013057806391ddadf4116100b8578063c3cda5201161007c578063c3cda520146104ed578063d505accf14610500578063dd62ed3e14610513578063f1127ed81461054c578063f2fde38b1461058b57600080fd5b806391ddadf41461049857806395d89b41146104b757806398f1312e146104bf5780639ab24eb0146104c7578063a9059cbb146104da57600080fd5b80637ecebe00116100ff5780637ecebe001461043e5780638456cb591461045157806384b0196e146104595780638da5cb5b146104745780638e539e8c1461048557600080fd5b80636fcfff45146103e757806370a08231146103fa578063715018a61461042357806379cc67901461042b57600080fd5b8063313ce567116101be57806342966c681161018257806342966c681461036a5780634bf5d7e91461037d578063587cde1e146103855780635c19a95c146103c95780635c975abb146103dc57600080fd5b8063313ce567146103275780633644e5151461033c57806336c20dcf146103445780633a46b1a81461034f5780633f4ba83a1461036257600080fd5b8063188214001161020557806318821400146102aa5780631b025a40146102d057806323b872dd146102e55780632a905318146102f857806330b36cef1461031e57600080fd5b806306fdde0314610237578063095ea7b3146102555780630d8c02051461027857806318160ddd14610298575b600080fd5b61023f61059e565b60405161024c9190611f31565b60405180910390f35b610268610263366004611f60565b610630565b604051901515815260200161024c565b6102836301e1338081565b60405163ffffffff909116815260200161024c565b6002545b60405190815260200161024c565b61023f604051806040016040528060078152602001662330b93a3432b960c91b81525081565b6102e36102de366004611f8a565b61064a565b005b6102686102f3366004611fcd565b61070e565b61023f604051806040016040528060078152602001662320a92a2422a960c91b81525081565b61029c600d5481565b60125b60405160ff909116815260200161024c565b61029c610732565b61029c633b9aca0081565b61029c61035d366004611f60565b610741565b6102e36107c7565b6102e3610378366004612009565b6107d9565b61023f6107e6565b6103b1610393366004612022565b6001600160a01b039081166000908152600960205260409020541690565b6040516001600160a01b03909116815260200161024c565b6102e36103d7366004612022565b61085e565b60055460ff16610268565b6102836103f5366004612022565b610869565b61029c610408366004612022565b6001600160a01b031660009081526020819052604090205490565b6102e3610874565b6102e3610439366004611f60565b610886565b61029c61044c366004612022565b61089b565b6102e36108a6565b6104616108b6565b60405161024c979695949392919061203d565b600c546001600160a01b03166103b1565b61029c610493366004612009565b6108fc565b6104a0610966565b60405165ffffffffffff909116815260200161024c565b61023f610970565b61032a600281565b61029c6104d5366004612022565b61097f565b6102686104e8366004611f60565b6109af565b6102e36104fb3660046120e4565b6109bd565b6102e361050e36600461213c565b610a7a565b61029c6105213660046121a6565b6001600160a01b03918216600090815260016020908152604080832093909416825291909152205490565b61055f61055a3660046121d9565b610bb4565b60408051825165ffffffffffff1681526020928301516001600160d01b0316928101929092520161024c565b6102e3610599366004612022565b610bd9565b6060600380546105ad9061220e565b80601f01602080910402602001604051908101604052809291908181526020018280546105d99061220e565b80156106265780601f106105fb57610100808354040283529160200191610626565b820191906000526020600020905b81548152906001019060200180831161060957829003601f168201915b5050505050905090565b60003361063e818585610c2c565b60019150505b92915050565b610652610c3e565b600d5442101561067557604051632a8ae5e960e11b815260040160405180910390fd5b6001600160a01b03821661069c57604051637d3daaeb60e11b815260040160405180910390fd5b6106aa6301e133804261225e565b600d55606460026106ba60025490565b6106c49190612271565b6106ce919061229e565b816001600160601b031611156106f7576040516363f10f7760e01b815260040160405180910390fd5b61070a82826001600160601b0316610c6b565b5050565b60003361071c858285610ca1565b610727858585610d1f565b506001949350505050565b600061073c610d7e565b905090565b60008061074c610966565b90508065ffffffffffff16831061078c57604051637669fc0f60e11b81526004810184905265ffffffffffff821660248201526044015b60405180910390fd5b6107b661079884610ea9565b6001600160a01b0386166000908152600a6020526040902090610ee0565b6001600160d01b0316949350505050565b6107cf610c3e565b6107d7610f96565b565b6107e33382610fe8565b50565b60606107f061101e565b65ffffffffffff16610800610966565b65ffffffffffff1614610826576040516301bfc1c560e61b815260040160405180910390fd5b5060408051808201909152601d81527f6d6f64653d626c6f636b6e756d6265722666726f6d3d64656661756c74000000602082015290565b3361070a8183611029565b60006106448261109b565b61087c610c3e565b6107d760006110bd565b610891823383610ca1565b61070a8282610fe8565b60006106448261110f565b6108ae610c3e565b6107d761112d565b6000606080600080600060606108ca61116a565b6108d2611197565b60408051600080825260208201909252600f60f81b9b939a50919850469750309650945092509050565b600080610907610966565b90508065ffffffffffff16831061094257604051637669fc0f60e11b81526004810184905265ffffffffffff82166024820152604401610783565b61095661094e84610ea9565b600b90610ee0565b6001600160d01b03169392505050565b600061073c61101e565b6060600480546105ad9061220e565b6001600160a01b0381166000908152600a602052604081206109a0906111c4565b6001600160d01b031692915050565b60003361063e818585610d1f565b834211156109e157604051632341d78760e11b815260048101859052602401610783565b604080517fe48329057bfd03d55e49b547132e39cffd9c1820ad7b9d4c5307691425d15adf60208201526001600160a01b038816918101919091526060810186905260808101859052600090610a5b90610a539060a001604051602081830303815290604052805190602001206111fd565b85858561122a565b9050610a678187611258565b610a718188611029565b50505050505050565b83421115610a9e5760405163313c898160e11b815260048101859052602401610783565b60007f6e71edae12b1b97f4d1f60370fef10105fa2faae0126114a169c64845d6126c9888888610aeb8c6001600160a01b0316600090815260086020526040902080546001810190915590565b6040805160208101969096526001600160a01b0394851690860152929091166060840152608083015260a082015260c0810186905260e0016040516020818303038152906040528051906020012090506000610b46826111fd565b90506000610b568287878761122a565b9050896001600160a01b0316816001600160a01b031614610b9d576040516325c0072360e11b81526001600160a01b0380831660048301528b166024820152604401610783565b610ba88a8a8a610c2c565b50505050505050505050565b6040805180820190915260008082526020820152610bd283836112ab565b9392505050565b610be1610c3e565b6001600160a01b038116610c0b57604051631e4fbdf760e01b815260006004820152602401610783565b6107e3816110bd565b6000610bd282846122c0565b6000610bd282846122e7565b610c3983838360016112e1565b505050565b600c546001600160a01b031633146107d75760405163118cdaa760e01b8152336004820152602401610783565b6001600160a01b038216610c955760405163ec442f0560e01b815260006004820152602401610783565b61070a600083836113b6565b6001600160a01b038381166000908152600160209081526040808320938616835292905220546000198114610d195781811015610d0a57604051637dc7a0d960e11b81526001600160a01b03841660048201526024810182905260448101839052606401610783565b610d19848484840360006112e1565b50505050565b6001600160a01b038316610d4957604051634b637e8f60e11b815260006004820152602401610783565b6001600160a01b038216610d735760405163ec442f0560e01b815260006004820152602401610783565b610c398383836113b6565b6000306001600160a01b037f000000000000000000000000000000000000000000000000000000000000000016148015610dd757507f000000000000000000000000000000000000000000000000000000000000000046145b15610e0157507f000000000000000000000000000000000000000000000000000000000000000090565b61073c604080517f8b73c3c69bb8fe3d512ecc4cf759cc79239f7b179b0ffacaa9a75d522b39400f60208201527f0000000000000000000000000000000000000000000000000000000000000000918101919091527f000000000000000000000000000000000000000000000000000000000000000060608201524660808201523060a082015260009060c00160405160208183030381529060405280519060200120905090565b600065ffffffffffff821115610edc576040516306dfcc6560e41b81526030600482015260248101839052604401610783565b5090565b815460009081816005811115610f3f576000610efb846113c1565b610f059085612307565b60008881526020902090915081015465ffffffffffff9081169087161015610f2f57809150610f3d565b610f3a81600161225e565b92505b505b6000610f4d878785856114a9565b90508015610f8857610f7287610f64600184612307565b600091825260209091200190565b54600160301b90046001600160d01b0316610f8b565b60005b979650505050505050565b610f9e61150b565b6005805460ff191690557f5db9ee0a495bf2e6ff9c91a7834c1ba4fdd244a5e8aa4e537bd38aeae4b073aa335b6040516001600160a01b03909116815260200160405180910390a1565b6001600160a01b03821661101257604051634b637e8f60e11b815260006004820152602401610783565b61070a826000836113b6565b600061073c43610ea9565b6001600160a01b0382811660008181526009602052604080822080548686166001600160a01b0319821681179092559151919094169392849290917f3134e8a2e6d97e929a7e54011ea5485d7d196dd5f0ba4d4ef95803e8e3fc257f9190a4610c3981836110968661152e565b61154c565b6001600160a01b0381166000908152600a6020526040812054610644906116b8565b600c80546001600160a01b038381166001600160a01b0319831681179093556040519116919082907f8be0079c531659141344cd1fd0a4f28419497f9722a3daafe3b4186f6b6457e090600090a35050565b6001600160a01b038116600090815260086020526040812054610644565b6111356116e9565b6005805460ff191660011790557f62e78cea01bee320cd4e420270b5ea74000d11b0c9f74754ebdbfc544b05a258610fcb3390565b606061073c7f0000000000000000000000000000000000000000000000000000000000000000600661170d565b606061073c7f0000000000000000000000000000000000000000000000000000000000000000600761170d565b805460009080156111f4576111de83610f64600184612307565b54600160301b90046001600160d01b0316610bd2565b60009392505050565b600061064461120a610d7e565b8360405161190160f01b8152600281019290925260228201526042902090565b60008060008061123c888888886117b8565b92509250925061124c8282611887565b50909695505050505050565b6001600160a01b0382166000908152600860205260409020805460018101909155818114610c39576040516301d4b62360e61b81526001600160a01b038416600482015260248101829052604401610783565b60408051808201909152600080825260208201526001600160a01b0383166000908152600a60205260409020610bd29083611940565b6001600160a01b03841661130b5760405163e602df0560e01b815260006004820152602401610783565b6001600160a01b03831661133557604051634a1406b160e11b815260006004820152602401610783565b6001600160a01b0380851660009081526001602090815260408083209387168352929052208290558015610d1957826001600160a01b0316846001600160a01b03167f8c5be1e5ebec7d5bd14f71427d1e84f3dd0314c0f7b2291e5b200ac8c7c3b925846040516113a891815260200190565b60405180910390a350505050565b610c398383836119b0565b6000816000036113d357506000919050565b600060016113e084611a17565b901c6001901b905060018184816113f9576113f9612288565b048201901c9050600181848161141157611411612288565b048201901c9050600181848161142957611429612288565b048201901c9050600181848161144157611441612288565b048201901c9050600181848161145957611459612288565b048201901c9050600181848161147157611471612288565b048201901c9050600181848161148957611489612288565b048201901c9050610bd2818285816114a3576114a3612288565b04611aab565b60005b818310156115035760006114c08484611ac1565b60008781526020902090915065ffffffffffff86169082015465ffffffffffff1611156114ef578092506114fd565b6114fa81600161225e565b93505b506114ac565b509392505050565b60055460ff166107d757604051638dfc202b60e01b815260040160405180910390fd5b6001600160a01b038116600090815260208190526040812054610644565b816001600160a01b0316836001600160a01b03161415801561156e5750600081115b15610c39576001600160a01b03831615611616576001600160a01b0383166000908152600a6020526040812081906115b190610c206115ac86611adc565b611b10565b6001600160d01b031691506001600160d01b03169150846001600160a01b03167fdec2bacdd2f05b59de34da9b523dff8be42e5e38e818c82fdb0bae774387a724838360405161160b929190918252602082015260400190565b60405180910390a250505b6001600160a01b03821615610c39576001600160a01b0382166000908152600a60205260408120819061164f90610c146115ac86611adc565b6001600160d01b031691506001600160d01b03169150836001600160a01b03167fdec2bacdd2f05b59de34da9b523dff8be42e5e38e818c82fdb0bae774387a72483836040516116a9929190918252602082015260400190565b60405180910390a25050505050565b600063ffffffff821115610edc576040516306dfcc6560e41b81526020600482015260248101839052604401610783565b60055460ff16156107d75760405163d93c066560e01b815260040160405180910390fd5b606060ff83146117275761172083611b49565b9050610644565b8180546117339061220e565b80601f016020809104026020016040519081016040528092919081815260200182805461175f9061220e565b80156117ac5780601f10611781576101008083540402835291602001916117ac565b820191906000526020600020905b81548152906001019060200180831161178f57829003601f168201915b50505050509050610644565b600080807f7fffffffffffffffffffffffffffffff5d576e7357a4501ddfe92f46681b20a08411156117f3575060009150600390508261187d565b604080516000808252602082018084528a905260ff891692820192909252606081018790526080810186905260019060a0016020604051602081039080840390855afa158015611847573d6000803e3d6000fd5b5050604051601f1901519150506001600160a01b0381166118735750600092506001915082905061187d565b9250600091508190505b9450945094915050565b600082600381111561189b5761189b61231a565b036118a4575050565b60018260038111156118b8576118b861231a565b036118d65760405163f645eedf60e01b815260040160405180910390fd5b60028260038111156118ea576118ea61231a565b0361190b5760405163fce698f760e01b815260048101829052602401610783565b600382600381111561191f5761191f61231a565b0361070a576040516335e2f38360e21b815260048101829052602401610783565b6040805180820190915260008082526020820152826000018263ffffffff168154811061196f5761196f612330565b60009182526020918290206040805180820190915291015465ffffffffffff81168252600160301b90046001600160d01b0316918101919091529392505050565b6119bb838383611b88565b6001600160a01b038316611a0c5760006119d460025490565b90506001600160d01b0380821115611a0957604051630e58ae9360e11b81526004810183905260248101829052604401610783565b50505b610c39838383611b9b565b600080608083901c15611a2c57608092831c92015b604083901c15611a3e57604092831c92015b602083901c15611a5057602092831c92015b601083901c15611a6257601092831c92015b600883901c15611a7457600892831c92015b600483901c15611a8657600492831c92015b600283901c15611a9857600292831c92015b600183901c156106445760010192915050565b6000818310611aba5781610bd2565b5090919050565b6000611ad0600284841861229e565b610bd29084841661225e565b60006001600160d01b03821115610edc576040516306dfcc6560e41b815260d0600482015260248101839052604401610783565b600080611b3c611b1e610966565b611b34611b2a886111c4565b868863ffffffff16565b879190611c11565b915091505b935093915050565b60606000611b5683611c1f565b604080516020808252818301909252919250600091906020820181803683375050509182525060208101929092525090565b611b906116e9565b610c39838383611c47565b6001600160a01b038316611bbd57611bba600b610c146115ac84611adc565b50505b6001600160a01b038216611bdf57611bdc600b610c206115ac84611adc565b50505b6001600160a01b03838116600090815260096020526040808220548584168352912054610c399291821691168361154c565b600080611b3c858585611d71565b600060ff8216601f81111561064457604051632cd44ac360e21b815260040160405180910390fd5b6001600160a01b038316611c72578060026000828254611c67919061225e565b90915550611ce49050565b6001600160a01b03831660009081526020819052604090205481811015611cc55760405163391434e360e21b81526001600160a01b03851660048201526024810182905260448101839052606401610783565b6001600160a01b03841660009081526020819052604090209082900390555b6001600160a01b038216611d0057600280548290039055611d1f565b6001600160a01b03821660009081526020819052604090208054820190555b816001600160a01b0316836001600160a01b03167fddf252ad1be2c89b69c2b068fc378daa952ba7f163c4a11628f55a4df523b3ef83604051611d6491815260200190565b60405180910390a3505050565b825460009081908015611e90576000611d8f87610f64600185612307565b60408051808201909152905465ffffffffffff808216808452600160301b9092046001600160d01b031660208401529192509087161015611de357604051632520601d60e01b815260040160405180910390fd5b805165ffffffffffff808816911603611e2f5784611e0688610f64600186612307565b80546001600160d01b0392909216600160301b0265ffffffffffff909216919091179055611e80565b6040805180820190915265ffffffffffff80881682526001600160d01b0380881660208085019182528b54600181018d5560008d81529190912094519151909216600160301b029216919091179101555b602001519250839150611b419050565b50506040805180820190915265ffffffffffff80851682526001600160d01b0380851660208085019182528854600181018a5560008a815291822095519251909316600160301b029190931617920191909155905081611b41565b6000815180845260005b81811015611f1157602081850181015186830182015201611ef5565b506000602082860101526020601f19601f83011685010191505092915050565b602081526000610bd26020830184611eeb565b80356001600160a01b0381168114611f5b57600080fd5b919050565b60008060408385031215611f7357600080fd5b611f7c83611f44565b946020939093013593505050565b60008060408385031215611f9d57600080fd5b611fa683611f44565b915060208301356001600160601b0381168114611fc257600080fd5b809150509250929050565b600080600060608486031215611fe257600080fd5b611feb84611f44565b9250611ff960208501611f44565b9150604084013590509250925092565b60006020828403121561201b57600080fd5b5035919050565b60006020828403121561203457600080fd5b610bd282611f44565b60ff60f81b881681526000602060e08184015261205d60e084018a611eeb565b838103604085015261206f818a611eeb565b606085018990526001600160a01b038816608086015260a0850187905284810360c0860152855180825283870192509083019060005b818110156120c1578351835292840192918401916001016120a5565b50909c9b505050505050505050505050565b803560ff81168114611f5b57600080fd5b60008060008060008060c087890312156120fd57600080fd5b61210687611f44565b95506020870135945060408701359350612122606088016120d3565b92506080870135915060a087013590509295509295509295565b600080600080600080600060e0888a03121561215757600080fd5b61216088611f44565b965061216e60208901611f44565b9550604088013594506060880135935061218a608089016120d3565b925060a0880135915060c0880135905092959891949750929550565b600080604083850312156121b957600080fd5b6121c283611f44565b91506121d060208401611f44565b90509250929050565b600080604083850312156121ec57600080fd5b6121f583611f44565b9150602083013563ffffffff81168114611fc257600080fd5b600181811c9082168061222257607f821691505b60208210810361224257634e487b7160e01b600052602260045260246000fd5b50919050565b634e487b7160e01b600052601160045260246000fd5b8082018082111561064457610644612248565b808202811582820484141761064457610644612248565b634e487b7160e01b600052601260045260246000fd5b6000826122bb57634e487b7160e01b600052601260045260246000fd5b500490565b6001600160d01b038181168382160190808211156122e0576122e0612248565b5092915050565b6001600160d01b038281168282160390808211156122e0576122e0612248565b8181038181111561064457610644612248565b634e487b7160e01b600052602160045260246000fd5b634e487b7160e01b600052603260045260246000fdfea264697066735822122052217e499ea0260970e73cc527ef38989494dd611775d65d09a71ef93f8947ce64736f6c63430008140033dec2bacdd2f05b59de34da9b523dff8be42e5e38e818c82fdb0bae774387a724","linkReferences":{}},"methodIdentifiers":{"CLOCK_MODE()":"4bf5d7e9","DOMAIN_SEPARATOR()":"3644e515","MINIMUM_TIME_BETWEEN_MINTS()":"0d8c0205","MINT_CAP()":"98f1312e","TOKEN_INITIAL_SUPPLY()":"36c20dcf","TOKEN_NAME()":"18821400","TOKEN_SYMBOL()":"2a905318","allowance(address,address)":"dd62ed3e","approve(address,uint256)":"095ea7b3","balanceOf(address)":"70a08231","burn(uint256)":"42966c68","burnFrom(address,uint256)":"79cc6790","checkpoints(address,uint32)":"f1127ed8","clock()":"91ddadf4","decimals()":"313ce567","delegate(address)":"5c19a95c","delegateBySig(address,uint256,uint256,uint8,bytes32,bytes32)":"c3cda520","delegates(address)":"587cde1e","eip712Domain()":"84b0196e","getPastTotalSupply(uint256)":"8e539e8c","getPastVotes(address,uint256)":"3a46b1a8","getVotes(address)":"9ab24eb0","mint(address,uint96)":"1b025a40","mintingAllowedAfter()":"30b36cef","name()":"06fdde03","nonces(address)":"7ecebe00","numCheckpoints(address)":"6fcfff45","owner()":"8da5cb5b","pause()":"8456cb59","paused()":"5c975abb","permit(address,address,uint256,uint256,uint8,bytes32,bytes32)":"d505accf","renounceOwnership()":"715018a6","symbol()":"95d89b41","totalSupply()":"18160ddd","transfer(address,uint256)":"a9059cbb","transferFrom(address,address,uint256)":"23b872dd","transferOwnership(address)":"f2fde38b","unpause()":"3f4ba83a"},"id":60}